:020000040000FA
:100000000A128A11EE2FFF1B0D2883137F18831706
:100010000008840A0319FF0A080000308A00040857
:10002000840A82070034533445344E344134493411
:0200300000349A
:100BCA00831603178901F0308316031386008312F4
:100BDA00031386010800F5007508F40006300310B7
:100BEA00F40DFF3E031DF42D730874077F39803E10
:100BFA000A128A116E270A128A1108007E088A00D0
:100C0A007F0882000A128A1103260A128A118000BA
:100C1A00840A04087D0603190034FF0A0319FE0A30
:100C2A00072E3134323433344134343435343634A3
:100C3A00423437343834393443342A343034233460
:100C4A0044345434653463346C3461343A34203473
:100C5A0020342034203400348316031308118811F9
:100C6A000812881208138813831203138815283070
:100C7A000A128A116E270A128A110C300A128A1174
:100C8A006E270A128A1101300A128A116E270A1275
:100C9A008A1102300A128A116E270A128A11080072
:100CAA00F2008312031308157208F00004300310CF
:100CBA00F00CFF3E031D5C2E7008F100F10E0808CF
:100CCA0071060F397106880088110D30F000F00B9B
:100CDA006C2E831203138815081572080F39F00059
:100CEA00F00E080870060F397006880088110D305A
:100CFA00F000F00B7E2E8312031388150800FB0008
:100D0A007608F9007908FA007608F9007908F300FC
:100D1A007B080A128A11F0250A128A11AD2E780868
:100D2A0083120313FF00770884000A128A11032032
:100D3A000A128A110A128A1155260A128A110130D8
:100D4A00F7070318F80A0130F9007908FA07AD2EF7
:100D5A00780883120313FF00770884000A128A11A5
:100D6A0003200A128A11003A031DBC2EBD2E942EAE
:100D7A00BE2E08003F308400303083120313BB00BC
:100D8A000408BC000B30BD003B0884008313000834
:100D9A00BE00BB0A3C0884003E088000BC0ABD0BAA
:100DAA00C92E0A128A1131260A128A110A128A11C6
:100DBA00E5250A128A11F6010130F7008030F800A1
:100DCA0000300A128A1184260A128A11EC2E0A129B
:100DDA008A1110270A128A1183120313BB003B08D7
:100DEA00C6004608031DFA2EFB2E002F2030BB003A
:100DFA003B08C600002FF6013F30F7000030F8002C
:100E0A0001300A128A1184260A128A11EC2EEC2E5B
:100E1A000A128A110028F401F60104307602031C32
:100E2A00172F182F1A2F6B2F6B2F0130F000760A0D
:100E3A00202F0310F00DFF3E031D1E2F7008831292
:100E4A0003138600F50104307502031C2D2F2E2F83
:100E5A00302F602F602F1030F000750A362F0310E4
:100E6A00F00DFF3E031D342F7008060503193E2FAF
:100E7A003F2F552F7608F00002300310F00DFF3E89
:100E8A00031D422F20307007F10075087107F20028
:100E9A007208840083130008F3007308F400552FC6
:100EAA000130F0007008F50704307502031C5E2F4C
:100EBA005F2F302F602F0130F0007008F6070430E2
:100ECA007602031C692F6A2F1A2F6B2F74086D2F55
:100EDA000800F2008312031308117208F0000430AC
:100EEA000310F00CFF3E031D752F7008F100F10E80
:100EFA00080871060F3971068800881172030319F0
:100F0A00872F882F8F2F02307206031D8D2F8E2F69
:100F1A00992F8F2F0330F1009730F000F00B932FA9
:100F2A00F10B932F982F9E2F0D30F000F00B9B2F73
:100F3A009E2F831203138815F0307205F0002030BB
:100F4A007006031DA92FAA2FC42F08117208F000DA
:100F5A0004300310F00CFF3E031DAE2F7008F100A1
:100F6A00F10E080871060F397106880088110D30D4
:100F7A00F000F00BBE2F831203138815C42F08113B
:100F8A0072080F39F000F00E080870060F39700663
:100F9A008800881172030319D32FD42FDB2F023054
:100FAA007206031DD92FDA2FE52FDB2F0330F1004C
:100FBA009730F000F00BDF2FF10BDF2FE42FEA2F31
:100FCA000D30F000F00BE72FEA2F83120313881578
:100FDA00080083133B30FD000630FE001630FF0088
:100FEA00203084000A128A1107260A128A11830104
:060FFA000A128A11BF2E4D
:04400E00D4E0FFFFFC
:00000001FF
